:020000040800F2
:1000000000000120B5080008610200086302000832
:10001000650200086702000869020008000000008D
:100020000000000000000000000000006B0200085B
:100030006D020008000000006F0200087102000855
:100040000509000805090008050900080509000858
:100050000509000805090008050900080509000848
:100060000509000805090008050900080509000838
:100070000509000805090008050900080509000828
:10008000050900080509000805090008000000002E
:10009000000000000000000000000000050900084A
:1000A00005090008050900080509000805090008F8
:1000B00005090008050900080509000805090008E8
:1000C00005090008050900080509000805090008D8
:1000D00005090008050900080509000800000000DE
:1000E00005090008050900080509000800000000CE
:1000F00000000000000000000000000005090008EA
:1001000000000000050900080509000805090008AD
:1001100000000000000000000000000000000000DF
:100120000509000805090008050900080509000877
:1001300005090008000000000000000000000000A9
:100140000000000000000000000000000509000899
:100150000509000805090008050900080509000847
:100160000509000805090008000000000000000063
:10017000000000000000000000000000000000007F
:100180000000000005090008000000000000000059
:040190000509000855
:1001940010B5054C237833B9044B13B10448AFF3BD
:1001A40000800123237010BD040000200000000023
:1001B4005009000808B5034B1BB103490348AFF3CA
:1001C400008008BD0000000008000020500900085D
:1001D40008B500F04FF80221002000F0ADF801222C
:1001E4000D21022000F0DCF800220D21022000F095
:1001F40045F900220D21022000F0A0F901220D2171
:10020400022000F009FA0021084600F095F80022C7
:100214001146104600F0C4F800221146104600F0C2
:100224008DF901220021084600F0F6F904E00122CC
:100234000D21022000F09AFA074C224600210846BC
:1002440000F058FA2378012BF1D100220D2102206D
:1002540000F08CFAF0E700BF20000020FEE7FEE784
:10026400FEE7FEE7FEE770477047704708B500F009
:1002740009FB08BD2F4BD3F8042822F03F02C3F832
:100284000428D3F804286FF38E12C3F80428D3F893
:10029400042822F44032C3F80428D3F8002842F09A
:1002A4000102C3F80028234BD3F8003813F0020FDF
:1002B400F9D0204BD3F8042822F48002C3F8042890
:1002C400D3F8042842F48032C3F80428D3F804286D
:1002D40042F4A842C3F80428D3F8042842F01002D8
:1002E400C3F80428D3F8002842F08072C3F8002829
:1002F400104BD3F8003813F0007FF9D00D4BD3F82E
:10030400002C42F00202C3F8002CD3F8082822F093
:100314000302C3F80828D3F8082842F00202C3F8FD
:100324000828044BD3F8083803F00C03082BF8D141
:10033400002070470030024003282DD8DFE800F089
:10034400020E182210B4154CD4F8303801228A4019
:100354001343C4F830385DF8044B70470F48D0F8A5
:10036400343801228A401343C0F8343800207047DF
:100374000A48D0F8403801228A401343C0F8403874
:10038400002070470548D0F8443801228A401343BE
:10039400C0F8443800207047012070470030024004
:1003A40010B4042864D8DFE800F00315293E530094
:1003B400304B1C6849004FF0030C0CFA01FC24EA92
:1003C4000C041C601C6802FA01F1214319605DF8F9
:1003D400044B7047274BD3F8004449004FF0030CFB
:1003E4000CFA01FC24EA0C04C3F80044D3F80044DA
:1003F40002FA01F12143C3F80014E8E71D4BD3F8D6
:10040400000849004FF0030C0CFA01FC20EA0C0030
:10041400C3F80008D3F8000802FA01F10143C3F855
:1004240000180120D3E7134BD3F8000C49004FF018
:10043400030C0CFA01FC20EA0C00C3F8000CD3F8FE
:10044400000C02FA01F10143C3F8001C0120BEE7CD
:10045400094B186849004FF0030C0CFA01FC20EA20
:100464000C00186018688A4002431A600120AEE745
:100474000120ACE7000002400010024010B4042840
:1004840055D8DFE800F0031325364700294B5C6894
:100494004FF0010C0CFA01FC24EA0C045C605C686B
:1004A4008A4022435A605DF8044B7047214BD3F8CD
:1004B40004444FF0010C0CFA01FC24EA0C04C3F8C8
:1004C4000444D3F804448A402243C3F80424EAE7EA
:1004D400184BD3F80448012000FA01FC24EA0C0468
:1004E400C3F80448D3F804488A402243C3F80428D4
:1004F400D9E7104BD3F8044C012000FA01FC24EA9C
:100504000C04C3F8044CD3F8044C8A402243C3F8C7
:10051400042CC8E7084B5C68012000FA01FC24EABB
:100524000C045C605C688A4022435A60BBE701208B
:10053400B9E700BF000002400010024010B40428D4
:1005440064D8DFE800F00315293E5300304B9C6863
:1005540049004FF0030C0CFA01FC24EA0C049C60E3
:100564009C6802FA01F1214399605DF8044B7047DD
:10057400274BD3F8084449004FF0030C0CFA01FC54
:1005840024EA0C04C3F80844D3F8084402FA01F13D
:100594002143C3F80814E8E71D4BD3F808084900C1
:1005A4004FF0030C0CFA01FC20EA0C00C3F8080815
:1005B400D3F8080802FA01F10143C3F8081801202E
:1005C400D3E7134BD3F8080C49004FF0030C0CFA93
:1005D40001FC20EA0C00C3F8080CD3F8080C02FA5A
:1005E40001F10143C3F8081C0120BEE7094B9868D8
:1005F40049004FF0030C0CFA01FC20EA0C0098604F
:1006040098688A4002439A600120AEE70120ACE773
:10061400000002400010024010B4042864D8DFE84F
:1006240000F00315293E5300304BDC6849004FF0BD
:10063400030C0CFA01FC24EA0C04DC60DC6802FA0A
:1006440001F12143D9605DF8044B7047274BD3F87F
:100654000C4449004FF0030C0CFA01FC24EA0C048E
:10066400C3F80C44D3F80C4402FA01F12143C3F853
:100674000C14E8E71D4BD3F80C0849004FF0030CA9
:100684000CFA01FC20EA0C00C3F80C08D3F80C089F
:1006940002FA01F10143C3F80C180120D3E7134B0C
:1006A400D3F80C0C49004FF0030C0CFA01FC20EABF
:1006B4000C00C3F80C0CD3F80C0C02FA01F1014342
:1006C400C3F80C1C0120BEE7094BD86849004FF061
:1006D400030C0CFA01FC20EA0C00D860D8688A40AC
:1006E4000243DA600120AEE70120ACE700000240DB
:1006F400001002401346002A2FD004282FD8DFE828
:1007040000F0030A121B2400164A1269CA4002F0C0
:1007140001021A707047134AD2F81024CA4002F03A
:1007240001021A7070470F4AD2F81028CA4002F02A
:1007340001021A70012070470A4AD2F8102CCA40EC
:1007440002F001021A7001207047074A1269CA4078
:1007540002F001021A700120704701207047012045
:10076400704700BF000002400010024010B404288B
:1007740000F28280DFE800F00318304B66005AB9BB
:100784003E4C6369012000FA01F123EA010363612D
:1007940010465DF8044B7047012AFAD1374C63695F
:1007A4008A4013436361F4E74AB9344CD4F81434EF
:1007B40001228A4023EA0203C4F81434E9E7012A37
:1007C400E7D12E4CD4F81434012000FA01F10B4384
:1007D400C4F814341046DCE752B9284AD2F8143865
:1007E400012000FA01F123EA0103C2F81438D0E72A
:1007F400012A01D00120CCE7204CD4F81438012080
:1008040000FA01F10B43C4F814381046C1E752B999
:100814001A4AD2F8143C012000FA01F123EA010338
:10082400C2F8143CB5E7012A01D00120B1E7134C0A
:10083400D4F8143C012000FA01F10B43C4F8143C31
:100844001046A6E75AB902F1804202F50432536910
:10085400012000FA01F123EA0103536199E7012A17
:1008640001D0012095E7064C6369012000FA01F1EB
:100874000B43636110468CE701208AE700000240C5
:1008840000100240034A1168034B1B780B441360A9
:10089400704700BF2400002000000020034AD2F863
:1008A400883043F47003C2F88830704700ED00E0EC
:1008B400DFF834D0FFF7F2FF0C480D490D4A00234E
:1008C40002E0D458C4500433C4188C42F9D30A4A01
:1008D4000A4C002301E013600432A242FBD300F06F
:1008E40011F8FFF775FC704700000120000000209C
:1008F40004000020700900080400002028000020E3
:10090400FEE7000070B50D4B0D4D5B1B9C100026DF
:10091400A64209D100F01AF80A4D0B4B5B1B9C1040
:100924000026A64205D170BD55F8043B9847013610
:10093400EEE755F8043B98470136F2E768090008EA
:1009440068090008680900086C090008F8B500BFC8
:10095400F8BC08BC9E467047F8B500BFF8BC08BC9C
:040964009E467047F4
:04096800B9010008C9
:04096C0095010008E9
:040970000100000082
:04000005080008B532
:00000001FF
